{"abi":[{"type":"function","name":"BOOTNODE_MANAGER_ROLE","inputs":[],"outputs":[{"name":"","type":"bytes32","internalType":"bytes32"}],"stateMutability":"view"},{"type":"function","name":"OWNER_ROLE","inputs":[],"outputs":[{"name":"","type":"bytes32","internalType":"bytes32"}],"stateMutability":"view"},{"type":"function","name":"STAGE_MANAGER_ROLE","inputs":[],"outputs":[{"name":"","type":"bytes32","internalType":"bytes32"}],"stateMutability":"view"},{"type":"function","name":"UPGRADE_INTERFACE_VERSION","inputs":[],"outputs":[{"name":"","type":"string","internalType":"string"}],"stateMutability":"view"},{"type":"function","name":"addBootnodes","inputs":[{"name":"newBootnodes","type":"string[]","internalType":"string[]"}],"outputs":[],"stateMutability":"nonpayable"},{"type":"function","name":"clearBootnodes","inputs":[],"outputs":[],"stateMutability":"nonpayable"},{"type":"function","name":"currentRound","inputs":[],"outputs":[{"name":"","type":"uint256","internalType":"uint256"}],"stateMutability":"view"},{"type":"function","name":"currentStage","inputs":[],"outputs":[{"name":"","type":"uint256","internalType":"uint256"}],"stateMutability":"view"},{"type":"function","name":"getBootnodes","inputs":[],"outputs":[{"name":"","type":"string[]","internalType":"string[]"}],"stateMutability":"view"},{"type":"function","name":"getBootnodesCount","inputs":[],"outputs":[{"name":"","type":"uint256","internalType":"uint256"}],"stateMutability":"view"},{"type":"function","name":"getEoa","inputs":[{"name":"peerIds","type":"string[]","internalType":"string[]"}],"outputs":[{"name":"","type":"address[]","internalType":"address[]"}],"stateMutability":"view"},{"type":"function","name":"getPeerId","inputs":[{"name":"eoas","type":"address[]","internalType":"address[]"}],"outputs":[{"name":"","type":"string[][]","internalType":"string[][]"}],"stateMutability":"view"},{"type":"function","name":"getPeerVoteCount","inputs":[{"name":"roundNumber","type":"uint256","internalType":"uint256"},{"name":"peerId","type":"string","internalType":"string"}],"outputs":[{"name":"","type":"uint256","internalType":"uint256"}],"stateMutability":"view"},{"type":"function","name":"getRoundStageReward","inputs":[{"name":"roundNumber","type":"uint256","internalType":"uint256"},{"name":"stageNumber","type":"uint256","internalType":"uint256"},{"name":"accounts","type":"address[]","internalType":"address[]"}],"outputs":[{"name":"","type":"uint256[]","internalType":"uint256[]"}],"stateMutability":"view"},{"type":"function","name":"getTotalRewards","inputs":[{"name":"peerIds","type":"string[]","internalType":"string[]"}],"outputs":[{"name":"","type":"uint256[]","internalType":"uint256[]"}],"stateMutability":"view"},{"type":"function","name":"getTotalWins","inputs":[{"name":"peerId","type":"string","internalType":"string"}],"outputs":[{"name":"","type":"uint256","internalType":"uint256"}],"stateMutability":"view"},{"type":"function","name":"getVoterVoteCount","inputs":[{"name":"peerId","type":"string","internalType":"string"}],"outputs":[{"name":"","type":"uint256","internalType":"uint256"}],"stateMutability":"view"},{"type":"function","name":"getVoterVotes","inputs":[{"name":"roundNumber","type":"uint256","internalType":"uint256"},{"name":"peerId","type":"string","internalType":"string"}],"outputs":[{"name":"","type":"string[]","internalType":"string[]"}],"stateMutability":"view"},{"type":"function","name":"grantRole","inputs":[{"name":"role","type":"bytes32","internalType":"bytes32"},{"name":"account","type":"address","internalType":"address"}],"outputs":[],"stateMutability":"nonpayable"},{"type":"function","name":"hasRole","inputs":[{"name":"role","type":"bytes32","internalType":"bytes32"},{"name":"account","type":"address","internalType":"address"}],"outputs":[{"name":"","type":"bool","internalType":"bool"}],"stateMutability":"view"},{"type":"function","name":"hasSubmittedRoundStageReward","inputs":[{"name":"roundNumber","type":"uint256","internalType":"uint256"},{"name":"stageNumber","type":"uint256","internalType":"uint256"},{"name":"account","type":"address","internalType":"address"}],"outputs":[{"name":"","type":"bool","internalType":"bool"}],"stateMutability":"view"},{"type":"function","name":"initialize","inputs":[{"name":"owner_","type":"address","internalType":"address"}],"outputs":[],"stateMutability":"nonpayable"},{"type":"function","name":"proxiableUUID","inputs":[],"outputs":[{"name":"","type":"bytes32","internalType":"bytes32"}],"stateMutability":"view"},{"type":"function","name":"registerPeer","inputs":[{"name":"peerId","type":"string","internalType":"string"}],"outputs":[],"stateMutability":"nonpayable"},{"type":"function","name":"removeBootnode","inputs":[{"name":"index","type":"uint256","internalType":"uint256"}],"outputs":[],"stateMutability":"nonpayable"},{"type":"function","name":"revokeRole","inputs":[{"name":"role","type":"bytes32","internalType":"bytes32"},{"name":"account","type":"address","internalType":"address"}],"outputs":[],"stateMutability":"nonpayable"},{"type":"function","name":"stageCount","inputs":[],"outputs":[{"name":"","type":"uint256","internalType":"uint256"}],"stateMutability":"pure"},{"type":"function","name":"submitReward","inputs":[{"name":"roundNumber","type":"uint256","internalType":"uint256"},{"name":"stageNumber","type":"uint256","internalType":"uint256"},{"name":"reward","type":"uint256","internalType":"uint256"},{"name":"peerId","type":"string","internalType":"string"}],"outputs":[],"stateMutability":"nonpayable"},{"type":"function","name":"submitWinners","inputs":[{"name":"roundNumber","type":"uint256","internalType":"uint256"},{"name":"winners","type":"string[]","internalType":"string[]"},{"name":"peerId","type":"string","internalType":"string"}],"outputs":[],"stateMutability":"nonpayable"},{"type":"function","name":"uniqueVotedPeers","inputs":[],"outputs":[{"name":"","type":"uint256","internalType":"uint256"}],"stateMutability":"view"},{"type":"function","name":"uniqueVoters","inputs":[],"outputs":[{"name":"","type":"uint256","internalType":"uint256"}],"stateMutability":"view"},{"type":"function","name":"updateStageAndRound","inputs":[],"outputs":[{"name":"","type":"uint256","internalType":"uint256"},{"name":"","type":"uint256","internalType":"uint256"}],"stateMutability":"nonpayable"},{"type":"function","name":"upgradeToAndCall","inputs":[{"name":"newImplementation","type":"address","internalType":"address"},{"name":"data","type":"bytes","internalType":"bytes"}],"outputs":[],"stateMutability":"payable"},{"type":"function","name":"voterLeaderboard","inputs":[{"name":"start","type":"uint256","internalType":"uint256"},{"name":"end","type":"uint256","internalType":"uint256"}],"outputs":[{"name":"peerIds","type":"string[]","internalType":"string[]"},{"name":"voteCounts","type":"uint256[]","internalType":"uint256[]"}],"stateMutability":"view"},{"type":"function","name":"winnerLeaderboard","inputs":[{"name":"start","type":"uint256","internalType":"uint256"},{"name":"end","type":"uint256","internalType":"uint256"}],"outputs":[{"name":"peerIds","type":"string[]","internalType":"string[]"},{"name":"wins","type":"uint256[]","internalType":"uint256[]"}],"stateMutability":"view"},{"type":"event","name":"AllBootnodesCleared","inputs":[{"name":"manager","type":"address","indexed":true,"internalType":"address"}],"anonymous":false},{"type":"event","name":"BootnodeRemoved","inputs":[{"name":"manager","type":"address","indexed":true,"internalType":"address"},{"name":"index","type":"uint256","indexed":false,"internalType":"uint256"}],"anonymous":false},{"type":"event","name":"BootnodesAdded","inputs":[{"name":"manager","type":"address","indexed":true,"internalType":"address"},{"name":"count","type":"uint256","indexed":false,"internalType":"uint256"}],"anonymous":false},{"type":"event","name":"CumulativeRewardsUpdated","inputs":[{"name":"account","type":"address","indexed":true,"internalType":"address"},{"name":"peerId","type":"string","indexed":false,"internalType":"string"},{"name":"totalRewards","type":"uint256","indexed":false,"internalType":"uint256"}],"anonymous":false},{"type":"event","name":"Initialized","inputs":[{"name":"version","type":"uint64","indexed":false,"internalType":"uint64"}],"anonymous":false},{"type":"event","name":"PeerRegistered","inputs":[{"name":"eoa","type":"address","indexed":true,"internalType":"address"},{"name":"peerId","type":"string","indexed":false,"internalType":"string"}],"anonymous":false},{"type":"event","name":"RewardSubmitted","inputs":[{"name":"account","type":"address","indexed":true,"internalType":"address"},{"name":"roundNumber","type":"uint256","indexed":true,"internalType":"uint256"},{"name":"stageNumber","type":"uint256","indexed":true,"internalType":"uint256"},{"name":"reward","type":"uint256","indexed":false,"internalType":"uint256"},{"name":"peerId","type":"string","indexed":false,"internalType":"string"}],"anonymous":false},{"type":"event","name":"RoleGranted","inputs":[{"name":"role","type":"bytes32","indexed":true,"internalType":"bytes32"},{"name":"account","type":"address","indexed":true,"internalType":"address"},{"name":"sender","type":"address","indexed":true,"internalType":"address"}],"anonymous":false},{"type":"event","name":"RoleRevoked","inputs":[{"name":"role","type":"bytes32","indexed":true,"internalType":"bytes32"},{"name":"account","type":"address","indexed":true,"internalType":"address"},{"name":"sender","type":"address","indexed":true,"internalType":"address"}],"anonymous":false},{"type":"event","name":"RoundAdvanced","inputs":[{"name":"newRoundNumber","type":"uint256","indexed":true,"internalType":"uint256"}],"anonymous":false},{"type":"event","name":"StageAdvanced","inputs":[{"name":"roundNumber","type":"uint256","indexed":true,"internalType":"uint256"},{"name":"newStage","type":"uint256","indexed":false,"internalType":"uint256"}],"anonymous":false},{"type":"event","name":"Upgraded","inputs":[{"name":"implementation","type":"address","indexed":true,"internalType":"address"}],"anonymous":false},{"type":"event","name":"WinnerSubmitted","inputs":[{"name":"account","type":"address","indexed":true,"internalType":"address"},{"name":"peerId","type":"string","indexed":false,"internalType":"string"},{"name":"roundNumber","type":"uint256","indexed":true,"internalType":"uint256"},{"name":"winners","type":"string[]","indexed":false,"internalType":"string[]"}],"anonymous":false},{"type":"error","name":"AddressEmptyCode","inputs":[{"name":"target","type":"address","internalType":"address"}]},{"type":"error","name":"ERC1967InvalidImplementation","inputs":[{"name":"implementation","type":"address","internalType":"address"}]},{"type":"error","name":"ERC1967NonPayable","inputs":[]},{"type":"error","name":"FailedCall","inputs":[]},{"type":"error","name":"InvalidBootnodeIndex","inputs":[]},{"type":"error","name":"InvalidInitialization","inputs":[]},{"type":"error","name":"InvalidRoundNumber","inputs":[]},{"type":"error","name":"InvalidStageNumber","inputs":[]},{"type":"error","name":"InvalidVote","inputs":[]},{"type":"error","name":"InvalidVoterPeerId","inputs":[]},{"type":"error","name":"NotInitializing","inputs":[]},{"type":"error","name":"OnlyBootnodeManager","inputs":[]},{"type":"error","name":"OnlyOwner","inputs":[]},{"type":"error","name":"OnlyStageManager","inputs":[]},{"type":"error","name":"PeerIdAlreadyRegistered","inputs":[]},{"type":"error","name":"RewardAlreadySubmitted","inputs":[]},{"type":"error","name":"StageOutOfBounds","inputs":[]},{"type":"error","name":"UUPSUnauthorizedCallContext","inputs":[]},{"type":"error","name":"UUPSUnsupportedProxiableUUID","inputs":[{"name":"slot","type":"bytes32","internalType":"bytes32"}]},{"type":"error","name":"WinnerAlreadyVoted","inputs":[]}],"bytecode":{"object":"0x60a0604052306080525f8080556001553480156019575f5ffd5b5060805161407b6100405f395f81816124220152818161244b01526126d0015261407b5ff3fe608060405260043610610229575f3560e01c80636370ae4f11610131578063b894a469116100ac578063dfb3c7df1161007c578063e58378bb11610062578063e58378bb146106e2578063f33261ac14610715578063fbe94d6814610728575f5ffd5b8063dfb3c7df1461069a578063e28b0586146106b9575f5ffd5b8063b894a46914610611578063c4d66de81461063d578063d547741f1461065c578063d90d85731461067b575f5ffd5b806391d148541161010157806396bac35a116100e757806396bac35a1461057c578063ad3cb1cc146105a8578063b0c77404146105fd575f5ffd5b806391d14854146104c35780639291fee514610524575f5ffd5b80636370ae4f1461044a5780637c8973c71461045e57806380c3d97f146104915780638a19c8bc146104b0575f5ffd5b806333e7fb45116101c15780634f1ef286116101915780634f52ca36116101775780634f52ca361461040357806352d1902d146104225780635bf5d54c14610436575f5ffd5b80634f1ef286146103d15780634f4026c3146103e4575f5ffd5b806333e7fb45146103765780634179a7591461039557806342d2c6a0146103a957806348495bdb146103bd575f5ffd5b806318a6fd88116101fc57806318a6fd88146102df5780632bdd8ea61461030c5780632f2ff15d146103385780632f4be65214610357575f5ffd5b8063068dc3221461022d57806306ca2dd314610273578063098f027f14610294578063099c4002146102c0575b5f5ffd5b348015610238575f5ffd5b506102607fcf0699fb89ab6c55a83a3d15d054926c4f9dc24cd23677cb3fcc9fbc31d7fea181565b6040519081526020015b60405180910390f35b34801561027e575f5ffd5b5061029261028d3660046131c8565b610747565b005b34801561029f575f5ffd5b506102b36102ae366004613265565b610a07565b60405161026a91906132ee565b3480156102cb575f5ffd5b506102606102da366004613300565b610b02565b3480156102ea575f5ffd5b506102fe6102f936600461333f565b610b2d565b60405161026a929190613423565b348015610317575f5ffd5b5061032b610326366004613447565b610db0565b60405161026a919061348f565b348015610343575f5ffd5b506102926103523660046134c9565b610eb6565b348015610362575f5ffd5b506102fe61037136600461333f565b610f2b565b348015610381575f5ffd5b50610292610390366004613300565b61119f565b3480156103a0575f5ffd5b506102926112f6565b3480156103b4575f5ffd5b50600b54610260565b3480156103c8575f5ffd5b50600d54610260565b6102926103df3660046135e6565b611394565b3480156103ef575f5ffd5b506102606103fe366004613447565b6113af565b34801561040e575f5ffd5b5061029261041d366004613644565b6113e4565b34801561042d575f5ffd5b50610260611551565b348015610441575f5ffd5b50600154610260565b348015610455575f5ffd5b5061032b61157f565b348015610469575f5ffd5b506102607f9900d33a52698f1474f45bfcefc86b8979f9b4e1ec601d0a29ece183eb99d41381565b34801561049c575f5ffd5b506102b36104ab36600461365b565b611653565b3480156104bb575f5ffd5b505f54610260565b3480156104ce575f5ffd5b506105146104dd3660046134c9565b5f91825260116020908152604080842073ffffffffffffffffffffffffffffffffffffffff93909316845291905290205460ff1690565b604051901515815260200161026a565b34801561052f575f5ffd5b5061051461053e36600461368e565b5f928352600f6020908152604080852093855292815282842073ffffffffffffffffffffffffffffffffffffffff9290921684525290205460ff1690565b348015610587575f5ffd5b5061059b61059636600461365b565b611715565b60405161026a91906136c0565b3480156105b3575f5ffd5b506105f06040518060400160405280600581526020017f352e302e3000000000000000000000000000000000000000000000000000000081525081565b60405161026a9190613718565b348015610608575f5ffd5b50600a54610260565b34801561061c575f5ffd5b5061063061062b36600461365b565b611805565b60405161026a919061372a565b348015610648575f5ffd5b5061029261065736600461380f565b6119b4565b348015610667575f5ffd5b506102926106763660046134c9565b611baf565b348015610686575f5ffd5b5061029261069536600461365b565b611c98565b3480156106a5575f5ffd5b506102606106b4366004613300565b611d8b565b3480156106c4575f5ffd5b506106cd611d9e565b6040805192835260208301919091520161026a565b3480156106ed575f5ffd5b506102607fb19546dff01e856fb3f010c267a7b1c60363cf8a4664e21cc89c26224620214e81565b348015610720575f5ffd5b506003610260565b348015610733575f5ffd5b50610292610742366004613828565b611ebe565b5f54851115610782576040517f4197f6ea00000000000000000000000000000000000000000000000000000000815260040160405180910390fd5b600384106107bc576040517ff7d2056300000000000000000000000000000000000000000000000000000000815260040160405180910390fd5b5f858152600f60209081526040808320878452825280832033845290915290205460ff1615610817576040517fe39ce02e00000000000000000000000000000000000000000000000000000000815260040160405180910390fd5b3373ffffffffffffffffffffffffffffffffffffffff1660038383604051610840929190613932565b9081526040519081900360200190205473ffffffffffffffffffffffffffffffffffffffff161461089d576040517f1614b50c00000000000000000000000000000000000000000000000000000000815260040160405180910390fd5b5f858152600e60209081526040808320878452825280832033808552908352818420879055888452600f835281842088855283528184209084529091529081902080547fffffffffffffffffffffffffffffffffffffffffffffffffffffffffffffff0016600117905551839060109061091a9085908590613932565b90815260200160405180910390205f828254610936919061396e565b9250508190555083853373ffffffffffffffffffffffffffffffffffffffff167fbe2c3b0fe65837e7de47f9d196ceaf0587ded813dde616c92ad745b07d5c3fb7868686604051610989939291906139c8565b60405180910390a43373ffffffffffffffffffffffffffffffffffffffff167fb1f4e4b741611e603a00530182de9db16655224aa344064dca1e40587f571a148383601086866040516109dd929190613932565b908152604051908190036020018120546109f89392916139e1565b60405180910390a25050505050565b60605f8267ffffffffffffffff811115610a2357610a236134f3565b604051908082528060200260200182016040528015610a4c578160200160208202803683370190505b5090505f5b83811015610af8575f878152600e60209081526040808320898452909152812090868684818110610a8457610a84613a04565b9050602002016020810190610a99919061380f565b73ffffffffffffffffffffffffffffffffffffffff1673ffffffffffffffffffffffffffffffffffffffff1681526020019081526020015f2054828281518110610ae557610ae5613a04565b6020908102919091010152600101610a51565b5095945050505050565b5f60048383604051610b15929190613932565b90815260200160405180910390205490505b92915050565b60608082841115610bc5576040517f08c379a000000000000000000000000000000000000000000000000000000000815260206004820152603360248201527f537461727420696e646578206d757374206265206c657373207468616e206f7260448201527f20657175616c20746f20656e6420696e6465780000000000000000000000000060648201526084015b60405180910390fd5b600954831115610bd55760095492505b600954841115610be55760095493505b5f610bf08585613a31565b90508067ffffffffffffffff811115610c0b57610c0b6134f3565b604051908082528060200260200182016040528015610c3e57816020015b6060815260200190600190039081610c295790505b5092508067ffffffffffffffff811115610c5a57610c5a6134f3565b604051908082528060200260200182016040528015610c83578160200160208202803683370190505b509150845b84811015610da6575f610c9b8783613a31565b90505f60098381548110610cb157610cb1613a04565b905f5260205f20018054610cc490613a44565b80601f0160208091040260200160405190810160405280929190818152602001828054610cf090613a44565b8015610d3b5780601f10610d1257610100808354040283529160200191610d3b565b820191905f5260205f20905b815481529060010190602001808311610d1e57829003601f168201915b5050505050905080868381518110610d5557610d55613a04565b6020026020010181905250600881604051610d709190613aac565b908152602001604051809103902054858381518110610d9157610d91613a04565b60209081029190910101525050600101610c88565b50505b9250929050565b606060065f8581526020019081526020015f208383604051610dd3929190613932565b9081526020016040518091039020805480602002602001604051908101604052809291908181526020015f905b82821015610ea8578382905f5260205f20018054610e1d90613a44565b80601f0160208091040260200160405190810160405280929190818152602001828054610e4990613a44565b8015610e945780601f10610e6b57610100808354040283529160200191610e94565b820191905f5260205f20905b815481529060010190602001808311610e7757829003601f168201915b505050505081526020019060010190610e00565b5050505090505b9392505050565b335f9081527f4c7c9fa41d43345216e0640e42c76e99c38daaa056860bfbda0dbcf4603e47a3602052604090205460ff16610f1d576040517f5fc483c500000000000000000000000000000000000000000000000000000000815260040160405180910390fd5b610f278282612385565b5050565b60608082841115610fbe576040517f08c379a000000000000000000000000000000000000000000000000000000000815260206004820152603360248201527f537461727420696e646578206d757374206265206c657373207468616e206f7260448201527f20657175616c20746f20656e6420696e646578000000000000000000000000006064820152608401610bbc565b600554831115610fce5760055492505b600554841115610fde5760055493505b5f610fe98585613a31565b90508067ffffffffffffffff811115611004576110046134f3565b60405190808252806020026020018201604052801561103757816020015b60608152602001906001900390816110225790505b5092508067ffffffffffffffff811115611053576110536134f3565b60405190808252806020026020018201604052801561107c578160200160208202803683370190505b509150845b84811015610da6575f6110948783613a31565b90505f600583815481106110aa576110aa613a04565b905f5260205f200180546110bd90613a44565b80601f01602080910402602001604051908101604052809291908181526020018280546110e990613a44565b80156111345780601f1061110b57610100808354040283529160200191611134565b820191905f5260205f20905b81548152906001019060200180831161111757829003601f168201915b505050505090508086838151811061114e5761114e613a04565b60200260200101819052506004816040516111699190613aac565b90815260200160405180910390205485838151811061118a5761118a613a04565b60209081029190910101525050600101611081565b60405133905f906003906111b69086908690613932565b9081526040519081900360200190205473ffffffffffffffffffffffffffffffffffffffff1614611213576040517f723dc67500000000000000000000000000000000000000000000000000000000815260040160405180910390fd5b73ffffffffffffffffffffffffffffffffffffffff81165f90815260026020908152604082208054600181018255908352912001611252838583613afb565b508060038484604051611266929190613932565b908152604051908190036020018120805473ffffffffffffffffffffffffffffffffffffffff9384167fffffffffffffffffffffffff0000000000000000000000000000000000000000909116179055908216907f13ff856599d1c93e876f34e507293c64647043cc0171caa42d35f8015c56455c906112e99086908690613c11565b60405180910390a2505050565b335f9081527fafd7ccd5bc85f1aae937543ac8f6b5cb0e2b451c8cea05c1640257a2a92c3e6e602052604090205460ff1661135d576040517f014c1cb500000000000000000000000000000000000000000000000000000000815260040160405180910390fd5b611368600d5f6130b4565b60405133907f283fdacb5de1271ad7865bfc841f02966aea2bb4d0211745186c12b16a3ce1b8905f90a2565b61139c61240a565b6113a582612510565b610f27828261257a565b5f8381526007602052604080822090516113cc9085908590613932565b90815260200160405180910390205490509392505050565b335f9081527fafd7ccd5bc85f1aae937543ac8f6b5cb0e2b451c8cea05c1640257a2a92c3e6e602052604090205460ff1661144b576040517f014c1cb500000000000000000000000000000000000000000000000000000000815260040160405180910390fd5b600d548110611486576040517f7d8aaf0e00000000000000000000000000000000000000000000000000000000815260040160405180910390fd5b600d5461149590600190613a31565b8110156114ed57600d80546114ac90600190613a31565b815481106114bc576114bc613a04565b905f5260205f2001600d82815481106114d7576114d7613a04565b905f5260205f200190816114eb9190613c2c565b505b600d8054806114fe576114fe613d60565b600190038181905f5260205f20015f61151791906130cf565b905560405181815233907f82d82daba96d4df28e6cb421b83d49e88d4e4a448a9e768311afba927487f20c9060200160405180910390a250565b5f61155a6126b8565b507f360894a13ba1a3210667c828492db98dca3e2076cc3735a920a3ca505d382bbc90565b6060600d805480602002602001604051908101604052809291908181526020015f905b8282101561164a578382905f5260205f200180546115bf90613a44565b80601f01602080910402602001604051908101604052809291908181526020018280546115eb90613a44565b80156116365780601f1061160d57610100808354040283529160200191611636565b820191905f5260205f20905b81548152906001019060200180831161161957829003601f168201915b5050505050815260200190600101906115a2565b50505050905090565b60605f8267ffffffffffffffff81111561166f5761166f6134f3565b604051908082528060200260200182016040528015611698578160200160208202803683370190505b5090505f5b8381101561170d5760108585838181106116b9576116b9613a04565b90506020028101906116cb9190613d8d565b6040516116d9929190613932565b9081526020016040518091039020548282815181106116fa576116fa613a04565b602090810291909101015260010161169d565b509392505050565b60605f8267ffffffffffffffff811115611731576117316134f3565b60405190808252806020026020018201604052801561175a578160200160208202803683370190505b5090505f5b8381101561170d57600385858381811061177b5761177b613a04565b905060200281019061178d9190613d8d565b60405161179b929190613932565b90815260405190819003602001902054825173ffffffffffffffffffffffffffffffffffffffff909116908390839081106117d8576117d8613a04565b73ffffffffffffffffffffffffffffffffffffffff9092166020928302919091019091015260010161175f565b60605f8267ffffffffffffffff811115611821576118216134f3565b60405190808252806020026020018201604052801561185457816020015b606081526020019060019003908161183f5790505b5090505f5b8381101561170d5760025f86868481811061187657611876613a04565b905060200201602081019061188b919061380f565b73ffffffffffffffffffffffffffffffffffffffff1673ffffffffffffffffffffffffffffffffffffffff1681526020019081526020015f20805480602002602001604051908101604052809291908181526020015f905b8282101561198b578382905f5260205f2001805461190090613a44565b80601f016020809104026020016040519081016040528092919081815260200182805461192c90613a44565b80156119775780601f1061194e57610100808354040283529160200191611977565b820191905f5260205f20905b81548152906001019060200180831161195a57829003601f168201915b5050505050815260200190600101906118e3565b505050508282815181106119a1576119a1613a04565b6020908102919091010152600101611859565b7ff0c57e16840df040f15088dc2f81fe391c3923bec73e23a9662efc9c229c6a00805468010000000000000000810460ff16159067ffffffffffffffff165f811580156119fe5750825b90505f8267ffffffffffffffff166001148015611a1a5750303b155b905081158015611a28575080155b15611a5f576040517ff92ee8a900000000000000000000000000000000000000000000000000000000815260040160405180910390fd5b84547fffffffffffffffffffffffffffffffffffffffffffffffff00000000000000001660011785558315611ac05784547fffffffffffffffffffffffffffffffffffffffffffffff00ffffffffffffffff16680100000000000000001785555b611aea7fb19546dff01e856fb3f010c267a7b1c60363cf8a4664e21cc89c26224620214e87612385565b611b147fcf0699fb89ab6c55a83a3d15d054926c4f9dc24cd23677cb3fcc9fbc31d7fea187612385565b611b3e7f9900d33a52698f1474f45bfcefc86b8979f9b4e1ec601d0a29ece183eb99d41387612385565b611b46612727565b8315611ba75784547fffffffffffffffffffffffffffffffffffffffffffffff00ffffffffffffffff168555604051600181527fc7f505b2f371ae2175ee4913f4499e1f2633a7b5936321eed1cdaeb6115181d29060200160405180910390a15b505050505050565b335f9081527f4c7c9fa41d43345216e0640e42c76e99c38daaa056860bfbda0dbcf4603e47a3602052604090205460ff16611c16576040517f5fc483c500000000000000000000000000000000000000000000000000000000815260040160405180910390fd5b5f82815260116020908152604080832073ffffffffffffffffffffffffffffffffffffffff8516808552925280832080547fffffffffffffffffffffffffffffffffffffffffffffffffffffffffffffff0016905551339285917ff6391f5c32d9c69d2a47ea670b442974b53935d1edc7fd64eb21e047a839171b9190a45050565b335f9081527fafd7ccd5bc85f1aae937543ac8f6b5cb0e2b451c8cea05c1640257a2a92c3e6e602052604090205460ff16611cff576040517f014c1cb500000000000000000000000000000000000000000000000000000000815260040160405180910390fd5b805f5b81811015611d5857600d848483818110611d1e57611d1e613a04565b9050602002810190611d309190613d8d565b82546001810184555f938452602090932090920191611d4f9183613afb565b50600101611d02565b5060405181815233907fa9a386aeb1871393ce021c503e25c80ac4d26812ec75539a703f472b818b5c6c906020016112e9565b5f60088383604051610b15929190613932565b335f9081527fe80ab0e0498f589701ca797b07aa379494ce082364fb632f0f085ad40105ec1f6020526040812054819060ff16611e07576040517f0719ac8c00000000000000000000000000000000000000000000000000000000815260040160405180910390fd5b60036001546001611e18919061396e565b10611e65575f80549080611e2b83613dee565b90915550505f6001819055805460405190917f023811fd72d20a3eb734785eed809172b5c9c24019d493039c70ef9c276d4d9791a2611e76565b60018054611e729161396e565b6001555b5f547f373b83833fa259ee8a1c96ccea2cb633a5b88dd292e40ff9f8c103d8ce10c577600154604051611eab91815260200190565b60405180910390a250505f546001549091565b5f54841115611ef9576040517f4197f6ea00000000000000000000000000000000000000000000000000000000815260040160405180910390fd5b5f848152600660205260408082209051611f169085908590613932565b908152604051908190036020019020541115611f5e576040517f3d51d82700000000000000000000000000000000000000000000000000000000815260040160405180910390fd5b3373ffffffffffffffffffffffffffffffffffffffff1660038383604051611f87929190613932565b9081526040519081900360200190205473ffffffffffffffffffffffffffffffffffffffff1614611fe4576040517f1614b50c00000000000000000000000000000000000000000000000000000000815260040160405180910390fd5b5f5b8351811015612091575f611ffb82600161396e565b90505b84518110156120885784818151811061201957612019613a04565b60200260200101518051906020012085838151811061203a5761203a613a04565b60200260200101518051906020012003612080576040517fd5dd0c6600000000000000000000000000000000000000000000000000000000815260040160405180910390fd5b600101611ffe565b50600101611fe6565b50600882826040516120a4929190613932565b9081526020016040518091039020545f036120ce57600a8054905f6120c883613dee565b91905055505b8260065f8681526020019081526020015f2083836040516120f0929190613932565b90815260200160405180910390209080519060200190612111929190613106565b505f5b835181101561223a575f858152600760205260409020845185908390811061213e5761213e613a04565b60200260200101516040516121539190613aac565b9081526040519081900360200190208054905f61216f83613dee565b9190505550600c84828151811061218857612188613a04565b602002602001015160405161219d9190613aac565b9081526040519081900360200190205460ff16612232576001600c8583815181106121ca576121ca613a04565b60200260200101516040516121df9190613aac565b90815260405190819003602001902080549115157fffffffffffffffffffffffffffffffffffffffffffffffffffffffffffffff00909216919091179055600b8054905f61222c83613dee565b91905055505b600101612114565b506008828260405161224d929190613932565b9081526040519081900360200190208054905f61226983613dee565b91905055506122ac82828080601f0160208091040260200160405190810160405280939291908181526020018383808284375f9201919091525061272f92505050565b5f5b835181101561232b5760048482815181106122cb576122cb613a04565b60200260200101516040516122e09190613aac565b9081526040519081900360200190208054905f6122fc83613dee565b919050555061232384828151811061231657612316613a04565b6020026020010151612a74565b6001016122ae565b50833373ffffffffffffffffffffffffffffffffffffffff167fc49e95fe7063aa0550cf4b88accd643a2eca314054a882fc705e1874a294aa3084848760405161237793929190613e25565b60405180910390a350505050565b5f82815260116020908152604080832073ffffffffffffffffffffffffffffffffffffffff8516808552925280832080547fffffffffffffffffffffffffffffffffffffffffffffffffffffffffffffff0016600117905551339285917f2f8788117e7eff1d82e926ec794901d17c78024a50270940304540a733656f0d9190a45050565b3073ffffffffffffffffffffffffffffffffffffffff7f00000000000000000000000000000000000000000000000000000000000000001614806124d757507f000000000000000000000000000000000000000000000000000000000000000073ffffffffffffffffffffffffffffffffffffffff166124be7f360894a13ba1a3210667c828492db98dca3e2076cc3735a920a3ca505d382bbc5473ffffffffffffffffffffffffffffffffffffffff1690565b73ffffffffffffffffffffffffffffffffffffffff1614155b1561250e576040517fe07c8dba00000000000000000000000000000000000000000000000000000000815260040160405180910390fd5b565b335f9081527f4c7c9fa41d43345216e0640e42c76e99c38daaa056860bfbda0dbcf4603e47a3602052604090205460ff16612577576040517f5fc483c500000000000000000000000000000000000000000000000000000000815260040160405180910390fd5b50565b8173ffffffffffffffffffffffffffffffffffffffff166352d1902d6040518163ffffffff1660e01b8152600401602060405180830381865afa9250505080156125ff575060408051601f3d9081017fffffffffffffffffffffffffffffffffffffffffffffffffffffffffffffffe01682019092526125fc91810190613e54565b60015b61264d576040517f4c9c8ce300000000000000000000000000000000000000000000000000000000815273ffffffffffffffffffffffffffffffffffffffff83166004820152602401610bbc565b7f360894a13ba1a3210667c828492db98dca3e2076cc3735a920a3ca505d382bbc81146126a9576040517faa1d49a400000000000000000000000000000000000000000000000000000000815260048101829052602401610bbc565b6126b38383612d95565b505050565b3073ffffffffffffffffffffffffffffffffffffffff7f0000000000000000000000000000000000000000000000000000000000000000161461250e576040517fe07c8dba00000000000000000000000000000000000000000000000000000000815260040160405180910390fd5b61250e612df7565b5f6008826040516127409190613aac565b908152604051908190036020019020546009549091507fffffffffffffffffffffffffffffffffffffffffffffffffffffffffffffffff905f5b818110156127cf5784805190602001206009828154811061279d5761279d613a04565b905f5260205f20016040516127b29190613ef7565b6040518091039020036127c7578092506127cf565b60010161277a565b507fffffffffffffffffffffffffffffffffffffffffffffffffffffffffffffffff82036128ea57606481101561285c57600980546001810182555f919091527f6e1540171b6c0c960b71a7020d9f60077f6af931a8bbf590da0223dacf75c7af0161283b8582613f02565b508061284681613dee565b91506128559050600182613a31565b91506128ea565b826008600961286c600185613a31565b8154811061287c5761287c613a04565b905f5260205f20016040516128919190613ef7565b90815260200160405180910390205410156128e4578360096128b4600184613a31565b815481106128c4576128c4613a04565b905f5260205f200190816128d89190613f02565b50612855600182613a31565b50505050565b815b5f8311801561293c57508360086009612906600187613a31565b8154811061291657612916613a04565b905f5260205f200160405161292b9190613ef7565b908152602001604051809103902054105b15612953578261294b81614011565b9350506128ec565b808314612a6d575f6009848154811061296e5761296e613a04565b905f5260205f2001805461298190613a44565b80601f01602080910402602001604051908101604052809291908181526020018280546129ad90613a44565b80156129f85780601f106129cf576101008083540402835291602001916129f8565b820191905f5260205f20905b8154815290600101906020018083116129db57829003601f168201915b5050505050905060098281548110612a1257612a12613a04565b905f5260205f200160098581548110612a2d57612a2d613a04565b905f5260205f20019081612a419190613c2c565b508060098381548110612a5657612a56613a04565b905f5260205f20019081612a6a9190613f02565b50505b5050505050565b5f600482604051612a859190613aac565b908152604051908190036020019020546005549091507fffffffffffffffffffffffffffffffffffffffffffffffffffffffffffffffff905f5b81811015612b1457848051906020012060058281548110612ae257612ae2613a04565b905f5260205f2001604051612af79190613ef7565b604051809103902003612b0c57809250612b14565b600101612abf565b507fffffffffffffffffffffffffffffffffffffffffffffffffffffffffffffffff8203612c29576064811015612ba157600580546001810182555f919091527f036b6384b5eca791c62761152d0c79bb0604c104a5fb6f4eb0703f3154bb3db001612b808582613f02565b5080612b8b81613dee565b9150612b9a9050600182613a31565b9150612c29565b8260046005612bb1600185613a31565b81548110612bc157612bc1613a04565b905f5260205f2001604051612bd69190613ef7565b90815260200160405180910390205410156128e457836005612bf9600184613a31565b81548110612c0957612c09613a04565b905f5260205f20019081612c1d9190613f02565b50612b9a600182613a31565b815b5f83118015612c7b57508360046005612c45600187613a31565b81548110612c5557612c55613a04565b905f5260205f2001604051612c6a9190613ef7565b908152602001604051809103902054105b15612c925782612c8a81614011565b935050612c2b565b808314612a6d575f60058481548110612cad57612cad613a04565b905f5260205f20018054612cc090613a44565b80601f0160208091040260200160405190810160405280929190818152602001828054612cec90613a44565b8015612d375780601f10612d0e57610100808354040283529160200191612d37565b820191905f5260205f20905b815481529060010190602001808311612d1a57829003601f168201915b5050505050905060058281548110612d5157612d51613a04565b905f5260205f200160058581548110612d6c57612d6c613a04565b905f5260205f20019081612d809190613c2c565b508060058381548110612a5657612a56613a04565b612d9e82612e5e565b60405173ffffffffffffffffffffffffffffffffffffffff8316907fbc7cd75a20ee27fd9adebab32041f755214dbc6bffa90cc0225b39da2e5c2d3b905f90a2805115612def576126b38282612f2c565b610f27612fab565b7ff0c57e16840df040f15088dc2f81fe391c3923bec73e23a9662efc9c229c6a005468010000000000000000900460ff1661250e576040517fd7e6bcf800000000000000000000000000000000000000000000000000000000815260040160405180910390fd5b8073ffffffffffffffffffffffffffffffffffffffff163b5f03612ec6576040517f4c9c8ce300000000000000000000000000000000000000000000000000000000815273ffffffffffffffffffffffffffffffffffffffff82166004820152602401610bbc565b7f360894a13ba1a3210667c828492db98dca3e2076cc3735a920a3ca505d382bbc80547fffffffffffffffffffffffff00000000000000000000000000000000000000001673ffffffffffffffffffffffffffffffffffffffff92909216919091179055565b60605f5f8473ffffffffffffffffffffffffffffffffffffffff1684604051612f559190613aac565b5f60405180830381855af49150503d805f8114612f8d576040519150601f19603f3d011682016040523d82523d5f602084013e612f92565b606091505b5091509150612fa2858383612fe3565b95945050505050565b341561250e576040517fb398979f00000000000000000000000000000000000000000000000000000000815260040160405180910390fd5b606082612ff857612ff382613072565b610eaf565b815115801561301c575073ffffffffffffffffffffffffffffffffffffffff84163b155b1561306b576040517f9996b31500000000000000000000000000000000000000000000000000000000815273ffffffffffffffffffffffffffffffffffffffff85166004820152602401610bbc565b5080610eaf565b8051156130825780518082602001fd5b6040517fd6bda27500000000000000000000000000000000000000000000000000000000815260040160405180910390fd5b5080545f8255905f5260205f2090810190612577919061315a565b5080546130db90613a44565b5f825580601f106130ea575050565b601f0160209004905f5260205f20908101906125779190613176565b828054828255905f5260205f2090810192821561314a579160200282015b8281111561314a578251829061313a9082613f02565b5091602001919060010190613124565b5061315692915061315a565b5090565b80821115613156575f61316d82826130cf565b5060010161315a565b5b80821115613156575f8155600101613177565b5f5f83601f84011261319a575f5ffd5b50813567ffffffffffffffff8111156131b1575f5ffd5b602083019150836020828501011115610da9575f5ffd5b5f5f5f5f5f608086880312156131dc575f5ffd5b853594506020860135935060408601359250606086013567ffffffffffffffff811115613207575f5ffd5b6132138882890161318a565b969995985093965092949392505050565b5f5f83601f840112613234575f5ffd5b50813567ffffffffffffffff81111561324b575f5ffd5b6020830191508360208260051b8501011115610da9575f5ffd5b5f5f5f5f60608587031215613278575f5ffd5b8435935060208501359250604085013567ffffffffffffffff81111561329c575f5ffd5b6132a887828801613224565b95989497509550505050565b5f8151808452602084019350602083015f5b828110156132e45781518652602095860195909101906001016132c6565b5093949350505050565b602081525f610eaf60208301846132b4565b5f5f60208385031215613311575f5ffd5b823567ffffffffffffffff811115613327575f5ffd5b6133338582860161318a565b90969095509350505050565b5f5f60408385031215613350575f5ffd5b50508035926020909101359150565b5f81518084528060208401602086015e5f6020828601015260207fffffffffffffffffffffffffffffffffffffffffffffffffffffffffffffffe0601f83011685010191505092915050565b5f82825180855260208501945060208160051b830101602085015f5b83811015613417577fffffffffffffffffffffffffffffffffffffffffffffffffffffffffffffffe085840301885261340183835161335f565b60209889019890935091909101906001016133c7565b50909695505050505050565b604081525f61343560408301856133ab565b8281036020840152612fa281856132b4565b5f5f5f60408486031215613459575f5ffd5b83359250602084013567ffffffffffffffff811115613476575f5ffd5b6134828682870161318a565b9497909650939450505050565b602081525f610eaf60208301846133ab565b803573ffffffffffffffffffffffffffffffffffffffff811681146134c4575f5ffd5b919050565b5f5f604083850312156134da575f5ffd5b823591506134ea602084016134a1565b90509250929050565b7f4e487b71000000000000000000000000000000000000000000000000000000005f52604160045260245ffd5b604051601f82017fffffffffffffffffffffffffffffffffffffffffffffffffffffffffffffffe016810167ffffffffffffffff81118282101715613567576135676134f3565b604052919050565b5f5f67ffffffffffffffff841115613589576135896134f3565b50601f83017fffffffffffffffffffffffffffffffffffffffffffffffffffffffffffffffe0166020016135bc81613520565b9150508281528383830111156135d0575f5ffd5b828260208301375f602084830101529392505050565b5f5f604083850312156135f7575f5ffd5b613600836134a1565b9150602083013567ffffffffffffffff81111561361b575f5ffd5b8301601f8101851361362b575f5ffd5b61363a8582356020840161356f565b9150509250929050565b5f60208284031215613654575f5ffd5b5035919050565b5f5f6020838503121561366c575f5ffd5b823567ffffffffffffffff811115613682575f5ffd5b61333385828601613224565b5f5f5f606084860312156136a0575f5ffd5b83359250602084013591506136b7604085016134a1565b90509250925092565b602080825282518282018190525f918401906040840190835b8181101561370d57835173ffffffffffffffffffffffffffffffffffffffff168352602093840193909201916001016136d9565b509095945050505050565b602081525f610eaf602083018461335f565b5f602082016020835280845180835260408501915060408160051b8601019250602086015f5b82811015613803578685037fffffffffffffffffffffffffffffffffffffffffffffffffffffffffffffffc0018452815180518087526020918201918088019190600582901b8901015f5b828110156137ea577fffffffffffffffffffffffffffffffffffffffffffffffffffffffffffffffe08a83030184526137d582865161335f565b6020958601959490940193915060010161379b565b5097505050602094850194929092019150600101613750565b50929695505050505050565b5f6020828403121561381f575f5ffd5b610eaf826134a1565b5f5f5f5f6060858703121561383b575f5ffd5b84359350602085013567ffffffffffffffff811115613858575f5ffd5b8501601f81018713613868575f5ffd5b803567ffffffffffffffff811115613882576138826134f3565b8060051b61389260208201613520565b9182526020818401810192908101908a8411156138ad575f5ffd5b6020850192505b8383101561390657823567ffffffffffffffff8111156138d2575f5ffd5b8501603f81018c136138e2575f5ffd5b6138f48c60208301356040840161356f565b835250602092830192909101906138b4565b96505050506040860135905067ffffffffffffffff811115613926575f5ffd5b6132a88782880161318a565b818382375f9101908152919050565b7f4e487b71000000000000000000000000000000000000000000000000000000005f52601160045260245ffd5b80820180821115610b2757610b27613941565b81835281816020850137505f602082840101525f60207fffffffffffffffffffffffffffffffffffffffffffffffffffffffffffffffe0601f840116840101905092915050565b838152604060208201525f612fa2604083018486613981565b604081525f6139f4604083018587613981565b9050826020830152949350505050565b7f4e487b71000000000000000000000000000000000000000000000000000000005f52603260045260245ffd5b81810381811115610b2757610b27613941565b600181811c90821680613a5857607f821691505b602082108103613a8f577f4e487b71000000000000000000000000000000000000000000000000000000005f52602260045260245ffd5b50919050565b5f81518060208401855e5f93019283525090919050565b5f610eaf8284613a95565b601f8211156126b357805f5260205f20601f840160051c81016020851015613adc5750805b601f840160051c820191505b81811015612a6d575f8155600101613ae8565b67ffffffffffffffff831115613b1357613b136134f3565b613b2783613b218354613a44565b83613ab7565b5f601f841160018114613b77575f8515613b415750838201355b7fffffffffffffffffffffffffffffffffffffffffffffffffffffffffffffffff600387901b1c1916600186901b178355612a6d565b5f838152602081207fffffffffffffffffffffffffffffffffffffffffffffffffffffffffffffffe08716915b82811015613bc45786850135825560209485019460019092019101613ba4565b5086821015613bff577fffffffffffffffffffffffffffffffffffffffffffffffffffffffffffffffff60f88860031b161c19848701351681555b505060018560011b0183555050505050565b602081525f613c24602083018486613981565b949350505050565b818103613c37575050565b613c418254613a44565b67ffffffffffffffff811115613c5957613c596134f3565b613c6d81613c678454613a44565b84613ab7565b5f601f821160018114613cc0575f8315613c875750848201545b600184901b7fffffffffffffffffffffffffffffffffffffffffffffffffffffffffffffffff600386901b1c198216175b855550612a6d565b5f85815260208082208683529082207fffffffffffffffffffffffffffffffffffffffffffffffffffffffffffffffe08616925b83811015613d145782860154825560019586019590910190602001613cf4565b5085831015613d5057818501547fffffffffffffffffffffffffffffffffffffffffffffffffffffffffffffffff600388901b60f8161c191681555b5050505050600190811b01905550565b7f4e487b71000000000000000000000000000000000000000000000000000000005f52603160045260245ffd5b5f5f83357fffffffffffffffffffffffffffffffffffffffffffffffffffffffffffffffe1843603018112613dc0575f5ffd5b83018035915067ffffffffffffffff821115613dda575f5ffd5b602001915036819003821315610da9575f5ffd5b5f7fffffffffffffffffffffffffffffffffffffffffffffffffffffffffffffffff8203613e1e57613e1e613941565b5060010190565b604081525f613e38604083018587613981565b8281036020840152613e4a81856133ab565b9695505050505050565b5f60208284031215613e64575f5ffd5b5051919050565b5f8154613e7781613a44565b600182168015613e8e5760018114613ec157613eee565b7fffffffffffffffffffffffffffffffffffffffffffffffffffffffffffffff0083168652811515820286019350613eee565b845f5260205f205f5b83811015613ee657815488820152600190910190602001613eca565b505081860193505b50505092915050565b5f610eaf8284613e6b565b815167ffffffffffffffff811115613f1c57613f1c6134f3565b613f2a81613c678454613a44565b6020601f821160018114613f79575f8315613c87575081850151600184901b7fffffffffffffffffffffffffffffffffffffffffffffffffffffffffffffffff600386901b1c19821617613cb8565b5f848152602081207fffffffffffffffffffffffffffffffffffffffffffffffffffffffffffffffe08516915b82811015613fc65787850151825560209485019460019092019101613fa6565b508482101561400257868401517fffffffffffffffffffffffffffffffffffffffffffffffffffffffffffffffff600387901b60f8161c191681555b50505050600190811b01905550565b5f8161401f5761401f613941565b507fffffffffffffffffffffffffffffffffffffffffffffffffffffffffffffffff019056fea264697066735822122098f246b71161a7e2269e24a444844364ac42dadcb3069f3b0dbecd53b39d9af364736f6c634300081d0033","linkReferences":{}},"methodIdentifiers":{"BOOTNODE_MANAGER_ROLE()":"7c8973c7","OWNER_ROLE()":"e58378bb","STAGE_MANAGER_ROLE()":"068dc322","UPGRADE_INTERFACE_VERSION()":"ad3cb1cc","addBootnodes(string[])":"d90d8573","clearBootnodes()":"4179a759","currentRound()":"8a19c8bc","currentStage()":"5bf5d54c","getBootnodes()":"6370ae4f","getBootnodesCount()":"48495bdb","getEoa(string[])":"96bac35a","getPeerId(address[])":"b894a469","getPeerVoteCount(uint256,string)":"4f4026c3","getRoundStageReward(uint256,uint256,address[])":"098f027f","getTotalRewards(string[])":"80c3d97f","getTotalWins(string)":"099c4002","getVoterVoteCount(string)":"dfb3c7df","getVoterVotes(uint256,string)":"2bdd8ea6","grantRole(bytes32,address)":"2f2ff15d","hasRole(bytes32,address)":"91d14854","hasSubmittedRoundStageReward(uint256,uint256,address)":"9291fee5","initialize(address)":"c4d66de8","proxiableUUID()":"52d1902d","registerPeer(string)":"33e7fb45","removeBootnode(uint256)":"4f52ca36","revokeRole(bytes32,address)":"d547741f","stageCount()":"f33261ac","submitReward(uint256,uint256,uint256,string)":"06ca2dd3","submitWinners(uint256,string[],string)":"fbe94d68","uniqueVotedPeers()":"42d2c6a0","uniqueVoters()":"b0c77404","updateStageAndRound()":"e28b0586","upgradeToAndCall(address,bytes)":"4f1ef286","voterLeaderboard(uint256,uint256)":"18a6fd88","winnerLeaderboard(uint256,uint256)":"2f4be652"},"id":30}