{"abi":[{"type":"function","name":"BOOTNODE_MANAGER_ROLE","inputs":[],"outputs":[{"name":"","type":"bytes32","internalType":"bytes32"}],"stateMutability":"view"},{"type":"function","name":"OWNER_ROLE","inputs":[],"outputs":[{"name":"","type":"bytes32","internalType":"bytes32"}],"stateMutability":"view"},{"type":"function","name":"STAGE_MANAGER_ROLE","inputs":[],"outputs":[{"name":"","type":"bytes32","internalType":"bytes32"}],"stateMutability":"view"},{"type":"function","name":"UPGRADE_INTERFACE_VERSION","inputs":[],"outputs":[{"name":"","type":"string","internalType":"string"}],"stateMutability":"view"},{"type":"function","name":"addBootnodes","inputs":[{"name":"newBootnodes","type":"string[]","internalType":"string[]"}],"outputs":[],"stateMutability":"nonpayable"},{"type":"function","name":"clearBootnodes","inputs":[],"outputs":[],"stateMutability":"nonpayable"},{"type":"function","name":"currentRound","inputs":[],"outputs":[{"name":"","type":"uint256","internalType":"uint256"}],"stateMutability":"view"},{"type":"function","name":"currentStage","inputs":[],"outputs":[{"name":"","type":"uint256","internalType":"uint256"}],"stateMutability":"view"},{"type":"function","name":"getBootnodes","inputs":[],"outputs":[{"name":"","type":"string[]","internalType":"string[]"}],"stateMutability":"view"},{"type":"function","name":"getBootnodesCount","inputs":[],"outputs":[{"name":"","type":"uint256","internalType":"uint256"}],"stateMutability":"view"},{"type":"function","name":"getEoa","inputs":[{"name":"peerIds","type":"string[]","internalType":"string[]"}],"outputs":[{"name":"","type":"address[]","internalType":"address[]"}],"stateMutability":"view"},{"type":"function","name":"getPeerId","inputs":[{"name":"eoas","type":"address[]","internalType":"address[]"}],"outputs":[{"name":"","type":"string[][]","internalType":"string[][]"}],"stateMutability":"view"},{"type":"function","name":"getPeerVoteCount","inputs":[{"name":"roundNumber","type":"uint256","internalType":"uint256"},{"name":"peerId","type":"string","internalType":"string"}],"outputs":[{"name":"","type":"uint256","internalType":"uint256"}],"stateMutability":"view"},{"type":"function","name":"getRoundStageReward","inputs":[{"name":"roundNumber","type":"uint256","internalType":"uint256"},{"name":"stageNumber","type":"uint256","internalType":"uint256"},{"name":"accounts","type":"address[]","internalType":"address[]"}],"outputs":[{"name":"","type":"int256[]","internalType":"int256[]"}],"stateMutability":"view"},{"type":"function","name":"getTotalRewards","inputs":[{"name":"peerIds","type":"string[]","internalType":"string[]"}],"outputs":[{"name":"","type":"int256[]","internalType":"int256[]"}],"stateMutability":"view"},{"type":"function","name":"getTotalWins","inputs":[{"name":"peerId","type":"string","internalType":"string"}],"outputs":[{"name":"","type":"uint256","internalType":"uint256"}],"stateMutability":"view"},{"type":"function","name":"getVoterVoteCount","inputs":[{"name":"peerId","type":"string","internalType":"string"}],"outputs":[{"name":"","type":"uint256","internalType":"uint256"}],"stateMutability":"view"},{"type":"function","name":"getVoterVotes","inputs":[{"name":"roundNumber","type":"uint256","internalType":"uint256"},{"name":"peerId","type":"string","internalType":"string"}],"outputs":[{"name":"","type":"string[]","internalType":"string[]"}],"stateMutability":"view"},{"type":"function","name":"grantRole","inputs":[{"name":"role","type":"bytes32","internalType":"bytes32"},{"name":"account","type":"address","internalType":"address"}],"outputs":[],"stateMutability":"nonpayable"},{"type":"function","name":"hasRole","inputs":[{"name":"role","type":"bytes32","internalType":"bytes32"},{"name":"account","type":"address","internalType":"address"}],"outputs":[{"name":"","type":"bool","internalType":"bool"}],"stateMutability":"view"},{"type":"function","name":"hasSubmittedRoundStageReward","inputs":[{"name":"roundNumber","type":"uint256","internalType":"uint256"},{"name":"stageNumber","type":"uint256","internalType":"uint256"},{"name":"account","type":"address","internalType":"address"}],"outputs":[{"name":"","type":"bool","internalType":"bool"}],"stateMutability":"view"},{"type":"function","name":"initialize","inputs":[{"name":"owner_","type":"address","internalType":"address"}],"outputs":[],"stateMutability":"nonpayable"},{"type":"function","name":"proxiableUUID","inputs":[],"outputs":[{"name":"","type":"bytes32","internalType":"bytes32"}],"stateMutability":"view"},{"type":"function","name":"registerPeer","inputs":[{"name":"peerId","type":"string","internalType":"string"}],"outputs":[],"stateMutability":"nonpayable"},{"type":"function","name":"removeBootnode","inputs":[{"name":"index","type":"uint256","internalType":"uint256"}],"outputs":[],"stateMutability":"nonpayable"},{"type":"function","name":"revokeRole","inputs":[{"name":"role","type":"bytes32","internalType":"bytes32"},{"name":"account","type":"address","internalType":"address"}],"outputs":[],"stateMutability":"nonpayable"},{"type":"function","name":"stageCount","inputs":[],"outputs":[{"name":"","type":"uint256","internalType":"uint256"}],"stateMutability":"pure"},{"type":"function","name":"submitReward","inputs":[{"name":"roundNumber","type":"uint256","internalType":"uint256"},{"name":"stageNumber","type":"uint256","internalType":"uint256"},{"name":"reward","type":"int256","internalType":"int256"},{"name":"peerId","type":"string","internalType":"string"}],"outputs":[],"stateMutability":"nonpayable"},{"type":"function","name":"submitWinners","inputs":[{"name":"roundNumber","type":"uint256","internalType":"uint256"},{"name":"winners","type":"string[]","internalType":"string[]"},{"name":"peerId","type":"string","internalType":"string"}],"outputs":[],"stateMutability":"nonpayable"},{"type":"function","name":"uniqueVotedPeers","inputs":[],"outputs":[{"name":"","type":"uint256","internalType":"uint256"}],"stateMutability":"view"},{"type":"function","name":"uniqueVoters","inputs":[],"outputs":[{"name":"","type":"uint256","internalType":"uint256"}],"stateMutability":"view"},{"type":"function","name":"updateStageAndRound","inputs":[],"outputs":[{"name":"","type":"uint256","internalType":"uint256"},{"name":"","type":"uint256","internalType":"uint256"}],"stateMutability":"nonpayable"},{"type":"function","name":"upgradeToAndCall","inputs":[{"name":"newImplementation","type":"address","internalType":"address"},{"name":"data","type":"bytes","internalType":"bytes"}],"outputs":[],"stateMutability":"payable"},{"type":"function","name":"voterLeaderboard","inputs":[{"name":"start","type":"uint256","internalType":"uint256"},{"name":"end","type":"uint256","internalType":"uint256"}],"outputs":[{"name":"peerIds","type":"string[]","internalType":"string[]"},{"name":"voteCounts","type":"uint256[]","internalType":"uint256[]"}],"stateMutability":"view"},{"type":"function","name":"winnerLeaderboard","inputs":[{"name":"start","type":"uint256","internalType":"uint256"},{"name":"end","type":"uint256","internalType":"uint256"}],"outputs":[{"name":"peerIds","type":"string[]","internalType":"string[]"},{"name":"wins","type":"uint256[]","internalType":"uint256[]"}],"stateMutability":"view"},{"type":"event","name":"AllBootnodesCleared","inputs":[{"name":"manager","type":"address","indexed":true,"internalType":"address"}],"anonymous":false},{"type":"event","name":"BootnodeRemoved","inputs":[{"name":"manager","type":"address","indexed":true,"internalType":"address"},{"name":"index","type":"uint256","indexed":false,"internalType":"uint256"}],"anonymous":false},{"type":"event","name":"BootnodesAdded","inputs":[{"name":"manager","type":"address","indexed":true,"internalType":"address"},{"name":"count","type":"uint256","indexed":false,"internalType":"uint256"}],"anonymous":false},{"type":"event","name":"CumulativeRewardsUpdated","inputs":[{"name":"account","type":"address","indexed":true,"internalType":"address"},{"name":"peerId","type":"string","indexed":false,"internalType":"string"},{"name":"totalRewards","type":"int256","indexed":false,"internalType":"int256"}],"anonymous":false},{"type":"event","name":"Initialized","inputs":[{"name":"version","type":"uint64","indexed":false,"internalType":"uint64"}],"anonymous":false},{"type":"event","name":"PeerRegistered","inputs":[{"name":"eoa","type":"address","indexed":true,"internalType":"address"},{"name":"peerId","type":"string","indexed":false,"internalType":"string"}],"anonymous":false},{"type":"event","name":"RewardSubmitted","inputs":[{"name":"account","type":"address","indexed":true,"internalType":"address"},{"name":"roundNumber","type":"uint256","indexed":true,"internalType":"uint256"},{"name":"stageNumber","type":"uint256","indexed":true,"internalType":"uint256"},{"name":"reward","type":"int256","indexed":false,"internalType":"int256"},{"name":"peerId","type":"string","indexed":false,"internalType":"string"}],"anonymous":false},{"type":"event","name":"RoleGranted","inputs":[{"name":"role","type":"bytes32","indexed":true,"internalType":"bytes32"},{"name":"account","type":"address","indexed":true,"internalType":"address"},{"name":"sender","type":"address","indexed":true,"internalType":"address"}],"anonymous":false},{"type":"event","name":"RoleRevoked","inputs":[{"name":"role","type":"bytes32","indexed":true,"internalType":"bytes32"},{"name":"account","type":"address","indexed":true,"internalType":"address"},{"name":"sender","type":"address","indexed":true,"internalType":"address"}],"anonymous":false},{"type":"event","name":"RoundAdvanced","inputs":[{"name":"newRoundNumber","type":"uint256","indexed":true,"internalType":"uint256"}],"anonymous":false},{"type":"event","name":"StageAdvanced","inputs":[{"name":"roundNumber","type":"uint256","indexed":true,"internalType":"uint256"},{"name":"newStage","type":"uint256","indexed":false,"internalType":"uint256"}],"anonymous":false},{"type":"event","name":"Upgraded","inputs":[{"name":"implementation","type":"address","indexed":true,"internalType":"address"}],"anonymous":false},{"type":"event","name":"WinnerSubmitted","inputs":[{"name":"account","type":"address","indexed":true,"internalType":"address"},{"name":"peerId","type":"string","indexed":false,"internalType":"string"},{"name":"roundNumber","type":"uint256","indexed":true,"internalType":"uint256"},{"name":"winners","type":"string[]","indexed":false,"internalType":"string[]"}],"anonymous":false},{"type":"error","name":"AddressEmptyCode","inputs":[{"name":"target","type":"address","internalType":"address"}]},{"type":"error","name":"ERC1967InvalidImplementation","inputs":[{"name":"implementation","type":"address","internalType":"address"}]},{"type":"error","name":"ERC1967NonPayable","inputs":[]},{"type":"error","name":"FailedCall","inputs":[]},{"type":"error","name":"InvalidBootnodeIndex","inputs":[]},{"type":"error","name":"InvalidInitialization","inputs":[]},{"type":"error","name":"InvalidRoundNumber","inputs":[]},{"type":"error","name":"InvalidStageNumber","inputs":[]},{"type":"error","name":"InvalidVote","inputs":[]},{"type":"error","name":"InvalidVoterPeerId","inputs":[]},{"type":"error","name":"NotInitializing","inputs":[]},{"type":"error","name":"OnlyBootnodeManager","inputs":[]},{"type":"error","name":"OnlyOwner","inputs":[]},{"type":"error","name":"OnlyStageManager","inputs":[]},{"type":"error","name":"PeerIdAlreadyRegistered","inputs":[]},{"type":"error","name":"RewardAlreadySubmitted","inputs":[]},{"type":"error","name":"StageOutOfBounds","inputs":[]},{"type":"error","name":"UUPSUnauthorizedCallContext","inputs":[]},{"type":"error","name":"UUPSUnsupportedProxiableUUID","inputs":[{"name":"slot","type":"bytes32","internalType":"bytes32"}]},{"type":"error","name":"WinnerAlreadyVoted","inputs":[]}],"bytecode":{"object":"0x60a0604052306080525f8080556001553480156019575f5ffd5b506080516140b76100405f395f81816124240152818161244d01526126d201526140b75ff3fe608060405260043610610229575f3560e01c80636370ae4f11610131578063b894a469116100ac578063dfb3c7df1161007c578063e58378bb11610062578063e58378bb146106e2578063f33261ac14610715578063fbe94d6814610728575f5ffd5b8063dfb3c7df1461069a578063e28b0586146106b9575f5ffd5b8063b894a46914610611578063c4d66de81461063d578063d547741f1461065c578063d90d85731461067b575f5ffd5b806391d148541161010157806396bac35a116100e757806396bac35a1461057c578063ad3cb1cc146105a8578063b0c77404146105fd575f5ffd5b806391d14854146104c35780639291fee514610524575f5ffd5b80636370ae4f1461044a5780637c8973c71461045e57806380c3d97f146104915780638a19c8bc146104b0575f5ffd5b80634179a759116101c15780634f4026c3116101915780635194e15f116101775780635194e15f1461040357806352d1902d146104225780635bf5d54c14610436575f5ffd5b80634f4026c3146103c55780634f52ca36146103e4575f5ffd5b80634179a7591461037657806342d2c6a01461038a57806348495bdb1461039e5780634f1ef286146103b2575f5ffd5b80632bdd8ea6116101fc5780632bdd8ea6146102eb5780632f2ff15d146103175780632f4be6521461033857806333e7fb4514610357575f5ffd5b8063068dc3221461022d578063098f027f14610273578063099c40021461029f57806318a6fd88146102be575b5f5ffd5b348015610238575f5ffd5b506102607fcf0699fb89ab6c55a83a3d15d054926c4f9dc24cd23677cb3fcc9fbc31d7fea181565b6040519081526020015b60405180910390f35b34801561027e575f5ffd5b5061029261028d3660046131cd565b610747565b60405161026a919061321c565b3480156102aa575f5ffd5b506102606102b936600461329c565b610842565b3480156102c9575f5ffd5b506102dd6102d83660046132db565b61086d565b60405161026a9291906133bf565b3480156102f6575f5ffd5b5061030a61030536600461340b565b610af0565b60405161026a9190613453565b348015610322575f5ffd5b5061033661033136600461348d565b610bf6565b005b348015610343575f5ffd5b506102dd6103523660046132db565b610c6b565b348015610362575f5ffd5b5061033661037136600461329c565b610edf565b348015610381575f5ffd5b50610336611036565b348015610395575f5ffd5b50600b54610260565b3480156103a9575f5ffd5b50600d54610260565b6103366103c03660046135aa565b6110d4565b3480156103d0575f5ffd5b506102606103df36600461340b565b6110ef565b3480156103ef575f5ffd5b506103366103fe366004613608565b611124565b34801561040e575f5ffd5b5061033661041d36600461361f565b611291565b34801561042d575f5ffd5b50610260611553565b348015610441575f5ffd5b50600154610260565b348015610455575f5ffd5b5061030a611581565b348015610469575f5ffd5b506102607f9900d33a52698f1474f45bfcefc86b8979f9b4e1ec601d0a29ece183eb99d41381565b34801561049c575f5ffd5b506102926104ab36600461367b565b611655565b3480156104bb575f5ffd5b505f54610260565b3480156104ce575f5ffd5b506105146104dd36600461348d565b5f91825260116020908152604080842073ffffffffffffffffffffffffffffffffffffffff93909316845291905290205460ff1690565b604051901515815260200161026a565b34801561052f575f5ffd5b5061051461053e3660046136ae565b5f928352600f6020908152604080852093855292815282842073ffffffffffffffffffffffffffffffffffffffff9290921684525290205460ff1690565b348015610587575f5ffd5b5061059b61059636600461367b565b611717565b60405161026a91906136e0565b3480156105b3575f5ffd5b506105f06040518060400160405280600581526020017f352e302e3000000000000000000000000000000000000000000000000000000081525081565b60405161026a919061372d565b348015610608575f5ffd5b50600a54610260565b34801561061c575f5ffd5b5061063061062b36600461367b565b611807565b60405161026a919061373f565b348015610648575f5ffd5b50610336610657366004613824565b6119b6565b348015610667575f5ffd5b5061033661067636600461348d565b611bb1565b348015610686575f5ffd5b5061033661069536600461367b565b611c9a565b3480156106a5575f5ffd5b506102606106b436600461329c565b611d8d565b3480156106c4575f5ffd5b506106cd611da0565b6040805192835260208301919091520161026a565b3480156106ed575f5ffd5b506102607fb19546dff01e856fb3f010c267a7b1c60363cf8a4664e21cc89c26224620214e81565b348015610720575f5ffd5b506003610260565b348015610733575f5ffd5b5061033661074236600461383d565b611ec0565b60605f8267ffffffffffffffff811115610763576107636134b7565b60405190808252806020026020018201604052801561078c578160200160208202803683370190505b5090505f5b83811015610838575f878152600e602090815260408083208984529091528120908686848181106107c4576107c4613947565b90506020020160208101906107d99190613824565b73ffffffffffffffffffffffffffffffffffffffff1673ffffffffffffffffffffffffffffffffffffffff1681526020019081526020015f205482828151811061082557610825613947565b6020908102919091010152600101610791565b5095945050505050565b5f60048383604051610855929190613974565b90815260200160405180910390205490505b92915050565b60608082841115610905576040517f08c379a000000000000000000000000000000000000000000000000000000000815260206004820152603360248201527f537461727420696e646578206d757374206265206c657373207468616e206f7260448201527f20657175616c20746f20656e6420696e6465780000000000000000000000000060648201526084015b60405180910390fd5b6009548311156109155760095492505b6009548411156109255760095493505b5f61093085856139b0565b90508067ffffffffffffffff81111561094b5761094b6134b7565b60405190808252806020026020018201604052801561097e57816020015b60608152602001906001900390816109695790505b5092508067ffffffffffffffff81111561099a5761099a6134b7565b6040519080825280602002602001820160405280156109c3578160200160208202803683370190505b509150845b84811015610ae6575f6109db87836139b0565b90505f600983815481106109f1576109f1613947565b905f5260205f20018054610a04906139c3565b80601f0160208091040260200160405190810160405280929190818152602001828054610a30906139c3565b8015610a7b5780601f10610a5257610100808354040283529160200191610a7b565b820191905f5260205f20905b815481529060010190602001808311610a5e57829003601f168201915b5050505050905080868381518110610a9557610a95613947565b6020026020010181905250600881604051610ab09190613a2b565b908152602001604051809103902054858381518110610ad157610ad1613947565b602090810291909101015250506001016109c8565b50505b9250929050565b606060065f8581526020019081526020015f208383604051610b13929190613974565b9081526020016040518091039020805480602002602001604051908101604052809291908181526020015f905b82821015610be8578382905f5260205f20018054610b5d906139c3565b80601f0160208091040260200160405190810160405280929190818152602001828054610b89906139c3565b8015610bd45780601f10610bab57610100808354040283529160200191610bd4565b820191905f5260205f20905b815481529060010190602001808311610bb757829003601f168201915b505050505081526020019060010190610b40565b5050505090505b9392505050565b335f9081527f4c7c9fa41d43345216e0640e42c76e99c38daaa056860bfbda0dbcf4603e47a3602052604090205460ff16610c5d576040517f5fc483c500000000000000000000000000000000000000000000000000000000815260040160405180910390fd5b610c678282612387565b5050565b60608082841115610cfe576040517f08c379a000000000000000000000000000000000000000000000000000000000815260206004820152603360248201527f537461727420696e646578206d757374206265206c657373207468616e206f7260448201527f20657175616c20746f20656e6420696e6465780000000000000000000000000060648201526084016108fc565b600554831115610d0e5760055492505b600554841115610d1e5760055493505b5f610d2985856139b0565b90508067ffffffffffffffff811115610d4457610d446134b7565b604051908082528060200260200182016040528015610d7757816020015b6060815260200190600190039081610d625790505b5092508067ffffffffffffffff811115610d9357610d936134b7565b604051908082528060200260200182016040528015610dbc578160200160208202803683370190505b509150845b84811015610ae6575f610dd487836139b0565b90505f60058381548110610dea57610dea613947565b905f5260205f20018054610dfd906139c3565b80601f0160208091040260200160405190810160405280929190818152602001828054610e29906139c3565b8015610e745780601f10610e4b57610100808354040283529160200191610e74565b820191905f5260205f20905b815481529060010190602001808311610e5757829003601f168201915b5050505050905080868381518110610e8e57610e8e613947565b6020026020010181905250600481604051610ea99190613a2b565b908152602001604051809103902054858381518110610eca57610eca613947565b60209081029190910101525050600101610dc1565b60405133905f90600390610ef69086908690613974565b9081526040519081900360200190205473ffffffffffffffffffffffffffffffffffffffff1614610f53576040517f723dc67500000000000000000000000000000000000000000000000000000000815260040160405180910390fd5b73ffffffffffffffffffffffffffffffffffffffff81165f90815260026020908152604082208054600181018255908352912001610f92838583613a7a565b508060038484604051610fa6929190613974565b908152604051908190036020018120805473ffffffffffffffffffffffffffffffffffffffff9384167fffffffffffffffffffffffff0000000000000000000000000000000000000000909116179055908216907f13ff856599d1c93e876f34e507293c64647043cc0171caa42d35f8015c56455c906110299086908690613bd7565b60405180910390a2505050565b335f9081527fafd7ccd5bc85f1aae937543ac8f6b5cb0e2b451c8cea05c1640257a2a92c3e6e602052604090205460ff1661109d576040517f014c1cb500000000000000000000000000000000000000000000000000000000815260040160405180910390fd5b6110a8600d5f6130b6565b60405133907f283fdacb5de1271ad7865bfc841f02966aea2bb4d0211745186c12b16a3ce1b8905f90a2565b6110dc61240c565b6110e582612512565b610c67828261257c565b5f83815260076020526040808220905161110c9085908590613974565b90815260200160405180910390205490509392505050565b335f9081527fafd7ccd5bc85f1aae937543ac8f6b5cb0e2b451c8cea05c1640257a2a92c3e6e602052604090205460ff1661118b576040517f014c1cb500000000000000000000000000000000000000000000000000000000815260040160405180910390fd5b600d5481106111c6576040517f7d8aaf0e00000000000000000000000000000000000000000000000000000000815260040160405180910390fd5b600d546111d5906001906139b0565b81101561122d57600d80546111ec906001906139b0565b815481106111fc576111fc613947565b905f5260205f2001600d828154811061121757611217613947565b905f5260205f2001908161122b9190613bf2565b505b600d80548061123e5761123e613d26565b600190038181905f5260205f20015f61125791906130d1565b905560405181815233907f82d82daba96d4df28e6cb421b83d49e88d4e4a448a9e768311afba927487f20c9060200160405180910390a250565b5f548511156112cc576040517f4197f6ea00000000000000000000000000000000000000000000000000000000815260040160405180910390fd5b600154841115611308576040517ff7d2056300000000000000000000000000000000000000000000000000000000815260040160405180910390fd5b5f858152600f60209081526040808320878452825280832033845290915290205460ff1615611363576040517fe39ce02e00000000000000000000000000000000000000000000000000000000815260040160405180910390fd5b3373ffffffffffffffffffffffffffffffffffffffff166003838360405161138c929190613974565b9081526040519081900360200190205473ffffffffffffffffffffffffffffffffffffffff16146113e9576040517f1614b50c00000000000000000000000000000000000000000000000000000000815260040160405180910390fd5b5f858152600e60209081526040808320878452825280832033808552908352818420879055888452600f835281842088855283528184209084529091529081902080547fffffffffffffffffffffffffffffffffffffffffffffffffffffffffffffff001660011790555183906010906114669085908590613974565b90815260200160405180910390205f8282546114829190613d53565b9250508190555083853373ffffffffffffffffffffffffffffffffffffffff167f3d9492e853616bfa85e7c758cbd89efdbe62254e78838c74c160192efa57f25f8686866040516114d593929190613d7a565b60405180910390a43373ffffffffffffffffffffffffffffffffffffffff167f984ef3ae4724684ba8e48f5e1e384dc71ecf5115bc094785d9399a59daf5d410838360108686604051611529929190613974565b90815260405190819003602001812054611544939291613d93565b60405180910390a25050505050565b5f61155c6126ba565b507f360894a13ba1a3210667c828492db98dca3e2076cc3735a920a3ca505d382bbc90565b6060600d805480602002602001604051908101604052809291908181526020015f905b8282101561164c578382905f5260205f200180546115c1906139c3565b80601f01602080910402602001604051908101604052809291908181526020018280546115ed906139c3565b80156116385780601f1061160f57610100808354040283529160200191611638565b820191905f5260205f20905b81548152906001019060200180831161161b57829003601f168201915b5050505050815260200190600101906115a4565b50505050905090565b60605f8267ffffffffffffffff811115611671576116716134b7565b60405190808252806020026020018201604052801561169a578160200160208202803683370190505b5090505f5b8381101561170f5760108585838181106116bb576116bb613947565b90506020028101906116cd9190613db6565b6040516116db929190613974565b9081526020016040518091039020548282815181106116fc576116fc613947565b602090810291909101015260010161169f565b509392505050565b60605f8267ffffffffffffffff811115611733576117336134b7565b60405190808252806020026020018201604052801561175c578160200160208202803683370190505b5090505f5b8381101561170f57600385858381811061177d5761177d613947565b905060200281019061178f9190613db6565b60405161179d929190613974565b90815260405190819003602001902054825173ffffffffffffffffffffffffffffffffffffffff909116908390839081106117da576117da613947565b73ffffffffffffffffffffffffffffffffffffffff90921660209283029190910190910152600101611761565b60605f8267ffffffffffffffff811115611823576118236134b7565b60405190808252806020026020018201604052801561185657816020015b60608152602001906001900390816118415790505b5090505f5b8381101561170f5760025f86868481811061187857611878613947565b905060200201602081019061188d9190613824565b73ffffffffffffffffffffffffffffffffffffffff1673ffffffffffffffffffffffffffffffffffffffff1681526020019081526020015f20805480602002602001604051908101604052809291908181526020015f905b8282101561198d578382905f5260205f20018054611902906139c3565b80601f016020809104026020016040519081016040528092919081815260200182805461192e906139c3565b80156119795780601f1061195057610100808354040283529160200191611979565b820191905f5260205f20905b81548152906001019060200180831161195c57829003601f168201915b5050505050815260200190600101906118e5565b505050508282815181106119a3576119a3613947565b602090810291909101015260010161185b565b7ff0c57e16840df040f15088dc2f81fe391c3923bec73e23a9662efc9c229c6a00805468010000000000000000810460ff16159067ffffffffffffffff165f81158015611a005750825b90505f8267ffffffffffffffff166001148015611a1c5750303b155b905081158015611a2a575080155b15611a61576040517ff92ee8a900000000000000000000000000000000000000000000000000000000815260040160405180910390fd5b84547fffffffffffffffffffffffffffffffffffffffffffffffff00000000000000001660011785558315611ac25784547fffffffffffffffffffffffffffffffffffffffffffffff00ffffffffffffffff16680100000000000000001785555b611aec7fb19546dff01e856fb3f010c267a7b1c60363cf8a4664e21cc89c26224620214e87612387565b611b167fcf0699fb89ab6c55a83a3d15d054926c4f9dc24cd23677cb3fcc9fbc31d7fea187612387565b611b407f9900d33a52698f1474f45bfcefc86b8979f9b4e1ec601d0a29ece183eb99d41387612387565b611b48612729565b8315611ba95784547fffffffffffffffffffffffffffffffffffffffffffffff00ffffffffffffffff168555604051600181527fc7f505b2f371ae2175ee4913f4499e1f2633a7b5936321eed1cdaeb6115181d29060200160405180910390a15b505050505050565b335f9081527f4c7c9fa41d43345216e0640e42c76e99c38daaa056860bfbda0dbcf4603e47a3602052604090205460ff16611c18576040517f5fc483c500000000000000000000000000000000000000000000000000000000815260040160405180910390fd5b5f82815260116020908152604080832073ffffffffffffffffffffffffffffffffffffffff8516808552925280832080547fffffffffffffffffffffffffffffffffffffffffffffffffffffffffffffff0016905551339285917ff6391f5c32d9c69d2a47ea670b442974b53935d1edc7fd64eb21e047a839171b9190a45050565b335f9081527fafd7ccd5bc85f1aae937543ac8f6b5cb0e2b451c8cea05c1640257a2a92c3e6e602052604090205460ff16611d01576040517f014c1cb500000000000000000000000000000000000000000000000000000000815260040160405180910390fd5b805f5b81811015611d5a57600d848483818110611d2057611d20613947565b9050602002810190611d329190613db6565b82546001810184555f938452602090932090920191611d519183613a7a565b50600101611d04565b5060405181815233907fa9a386aeb1871393ce021c503e25c80ac4d26812ec75539a703f472b818b5c6c90602001611029565b5f60088383604051610855929190613974565b335f9081527fe80ab0e0498f589701ca797b07aa379494ce082364fb632f0f085ad40105ec1f6020526040812054819060ff16611e09576040517f0719ac8c00000000000000000000000000000000000000000000000000000000815260040160405180910390fd5b60036001546001611e1a9190613e17565b10611e67575f80549080611e2d83613e2a565b90915550505f6001819055805460405190917f023811fd72d20a3eb734785eed809172b5c9c24019d493039c70ef9c276d4d9791a2611e78565b60018054611e7491613e17565b6001555b5f547f373b83833fa259ee8a1c96ccea2cb633a5b88dd292e40ff9f8c103d8ce10c577600154604051611ead91815260200190565b60405180910390a250505f546001549091565b5f54841115611efb576040517f4197f6ea00000000000000000000000000000000000000000000000000000000815260040160405180910390fd5b5f848152600660205260408082209051611f189085908590613974565b908152604051908190036020019020541115611f60576040517f3d51d82700000000000000000000000000000000000000000000000000000000815260040160405180910390fd5b3373ffffffffffffffffffffffffffffffffffffffff1660038383604051611f89929190613974565b9081526040519081900360200190205473ffffffffffffffffffffffffffffffffffffffff1614611fe6576040517f1614b50c00000000000000000000000000000000000000000000000000000000815260040160405180910390fd5b5f5b8351811015612093575f611ffd826001613e17565b90505b845181101561208a5784818151811061201b5761201b613947565b60200260200101518051906020012085838151811061203c5761203c613947565b60200260200101518051906020012003612082576040517fd5dd0c6600000000000000000000000000000000000000000000000000000000815260040160405180910390fd5b600101612000565b50600101611fe8565b50600882826040516120a6929190613974565b9081526020016040518091039020545f036120d057600a8054905f6120ca83613e2a565b91905055505b8260065f8681526020019081526020015f2083836040516120f2929190613974565b90815260200160405180910390209080519060200190612113929190613108565b505f5b835181101561223c575f858152600760205260409020845185908390811061214057612140613947565b60200260200101516040516121559190613a2b565b9081526040519081900360200190208054905f61217183613e2a565b9190505550600c84828151811061218a5761218a613947565b602002602001015160405161219f9190613a2b565b9081526040519081900360200190205460ff16612234576001600c8583815181106121cc576121cc613947565b60200260200101516040516121e19190613a2b565b90815260405190819003602001902080549115157fffffffffffffffffffffffffffffffffffffffffffffffffffffffffffffff00909216919091179055600b8054905f61222e83613e2a565b91905055505b600101612116565b506008828260405161224f929190613974565b9081526040519081900360200190208054905f61226b83613e2a565b91905055506122ae82828080601f0160208091040260200160405190810160405280939291908181526020018383808284375f9201919091525061273192505050565b5f5b835181101561232d5760048482815181106122cd576122cd613947565b60200260200101516040516122e29190613a2b565b9081526040519081900360200190208054905f6122fe83613e2a565b919050555061232584828151811061231857612318613947565b6020026020010151612a76565b6001016122b0565b50833373ffffffffffffffffffffffffffffffffffffffff167fc49e95fe7063aa0550cf4b88accd643a2eca314054a882fc705e1874a294aa3084848760405161237993929190613e61565b60405180910390a350505050565b5f82815260116020908152604080832073ffffffffffffffffffffffffffffffffffffffff8516808552925280832080547fffffffffffffffffffffffffffffffffffffffffffffffffffffffffffffff0016600117905551339285917f2f8788117e7eff1d82e926ec794901d17c78024a50270940304540a733656f0d9190a45050565b3073ffffffffffffffffffffffffffffffffffffffff7f00000000000000000000000000000000000000000000000000000000000000001614806124d957507f000000000000000000000000000000000000000000000000000000000000000073ffffffffffffffffffffffffffffffffffffffff166124c07f360894a13ba1a3210667c828492db98dca3e2076cc3735a920a3ca505d382bbc5473ffffffffffffffffffffffffffffffffffffffff1690565b73ffffffffffffffffffffffffffffffffffffffff1614155b15612510576040517fe07c8dba00000000000000000000000000000000000000000000000000000000815260040160405180910390fd5b565b335f9081527f4c7c9fa41d43345216e0640e42c76e99c38daaa056860bfbda0dbcf4603e47a3602052604090205460ff16612579576040517f5fc483c500000000000000000000000000000000000000000000000000000000815260040160405180910390fd5b50565b8173ffffffffffffffffffffffffffffffffffffffff166352d1902d6040518163ffffffff1660e01b8152600401602060405180830381865afa925050508015612601575060408051601f3d9081017fffffffffffffffffffffffffffffffffffffffffffffffffffffffffffffffe01682019092526125fe91810190613e90565b60015b61264f576040517f4c9c8ce300000000000000000000000000000000000000000000000000000000815273ffffffffffffffffffffffffffffffffffffffff831660048201526024016108fc565b7f360894a13ba1a3210667c828492db98dca3e2076cc3735a920a3ca505d382bbc81146126ab576040517faa1d49a4000000000000000000000000000000000000000000000000000000008152600481018290526024016108fc565b6126b58383612d97565b505050565b3073ffffffffffffffffffffffffffffffffffffffff7f00000000000000000000000000000000000000000000000000000000000000001614612510576040517fe07c8dba00000000000000000000000000000000000000000000000000000000815260040160405180910390fd5b612510612df9565b5f6008826040516127429190613a2b565b908152604051908190036020019020546009549091507fffffffffffffffffffffffffffffffffffffffffffffffffffffffffffffffff905f5b818110156127d15784805190602001206009828154811061279f5761279f613947565b905f5260205f20016040516127b49190613f33565b6040518091039020036127c9578092506127d1565b60010161277c565b507fffffffffffffffffffffffffffffffffffffffffffffffffffffffffffffffff82036128ec57606481101561285e57600980546001810182555f919091527f6e1540171b6c0c960b71a7020d9f60077f6af931a8bbf590da0223dacf75c7af0161283d8582613f3e565b508061284881613e2a565b915061285790506001826139b0565b91506128ec565b826008600961286e6001856139b0565b8154811061287e5761287e613947565b905f5260205f20016040516128939190613f33565b90815260200160405180910390205410156128e6578360096128b66001846139b0565b815481106128c6576128c6613947565b905f5260205f200190816128da9190613f3e565b506128576001826139b0565b50505050565b815b5f8311801561293e575083600860096129086001876139b0565b8154811061291857612918613947565b905f5260205f200160405161292d9190613f33565b908152602001604051809103902054105b15612955578261294d8161404d565b9350506128ee565b808314612a6f575f6009848154811061297057612970613947565b905f5260205f20018054612983906139c3565b80601f01602080910402602001604051908101604052809291908181526020018280546129af906139c3565b80156129fa5780601f106129d1576101008083540402835291602001916129fa565b820191905f5260205f20905b8154815290600101906020018083116129dd57829003601f168201915b5050505050905060098281548110612a1457612a14613947565b905f5260205f200160098581548110612a2f57612a2f613947565b905f5260205f20019081612a439190613bf2565b508060098381548110612a5857612a58613947565b905f5260205f20019081612a6c9190613f3e565b50505b5050505050565b5f600482604051612a879190613a2b565b908152604051908190036020019020546005549091507fffffffffffffffffffffffffffffffffffffffffffffffffffffffffffffffff905f5b81811015612b1657848051906020012060058281548110612ae457612ae4613947565b905f5260205f2001604051612af99190613f33565b604051809103902003612b0e57809250612b16565b600101612ac1565b507fffffffffffffffffffffffffffffffffffffffffffffffffffffffffffffffff8203612c2b576064811015612ba357600580546001810182555f919091527f036b6384b5eca791c62761152d0c79bb0604c104a5fb6f4eb0703f3154bb3db001612b828582613f3e565b5080612b8d81613e2a565b9150612b9c90506001826139b0565b9150612c2b565b8260046005612bb36001856139b0565b81548110612bc357612bc3613947565b905f5260205f2001604051612bd89190613f33565b90815260200160405180910390205410156128e657836005612bfb6001846139b0565b81548110612c0b57612c0b613947565b905f5260205f20019081612c1f9190613f3e565b50612b9c6001826139b0565b815b5f83118015612c7d57508360046005612c476001876139b0565b81548110612c5757612c57613947565b905f5260205f2001604051612c6c9190613f33565b908152602001604051809103902054105b15612c945782612c8c8161404d565b935050612c2d565b808314612a6f575f60058481548110612caf57612caf613947565b905f5260205f20018054612cc2906139c3565b80601f0160208091040260200160405190810160405280929190818152602001828054612cee906139c3565b8015612d395780601f10612d1057610100808354040283529160200191612d39565b820191905f5260205f20905b815481529060010190602001808311612d1c57829003601f168201915b5050505050905060058281548110612d5357612d53613947565b905f5260205f200160058581548110612d6e57612d6e613947565b905f5260205f20019081612d829190613bf2565b508060058381548110612a5857612a58613947565b612da082612e60565b60405173ffffffffffffffffffffffffffffffffffffffff8316907fbc7cd75a20ee27fd9adebab32041f755214dbc6bffa90cc0225b39da2e5c2d3b905f90a2805115612df1576126b58282612f2e565b610c67612fad565b7ff0c57e16840df040f15088dc2f81fe391c3923bec73e23a9662efc9c229c6a005468010000000000000000900460ff16612510576040517fd7e6bcf800000000000000000000000000000000000000000000000000000000815260040160405180910390fd5b8073ffffffffffffffffffffffffffffffffffffffff163b5f03612ec8576040517f4c9c8ce300000000000000000000000000000000000000000000000000000000815273ffffffffffffffffffffffffffffffffffffffff821660048201526024016108fc565b7f360894a13ba1a3210667c828492db98dca3e2076cc3735a920a3ca505d382bbc80547fffffffffffffffffffffffff00000000000000000000000000000000000000001673ffffffffffffffffffffffffffffffffffffffff92909216919091179055565b60605f5f8473ffffffffffffffffffffffffffffffffffffffff1684604051612f579190613a2b565b5f60405180830381855af49150503d805f8114612f8f576040519150601f19603f3d011682016040523d82523d5f602084013e612f94565b606091505b5091509150612fa4858383612fe5565b95945050505050565b3415612510576040517fb398979f00000000000000000000000000000000000000000000000000000000815260040160405180910390fd5b606082612ffa57612ff582613074565b610bef565b815115801561301e575073ffffffffffffffffffffffffffffffffffffffff84163b155b1561306d576040517f9996b31500000000000000000000000000000000000000000000000000000000815273ffffffffffffffffffffffffffffffffffffffff851660048201526024016108fc565b5080610bef565b8051156130845780518082602001fd5b6040517fd6bda27500000000000000000000000000000000000000000000000000000000815260040160405180910390fd5b5080545f8255905f5260205f2090810190612579919061315c565b5080546130dd906139c3565b5f825580601f106130ec575050565b601f0160209004905f5260205f20908101906125799190613178565b828054828255905f5260205f2090810192821561314c579160200282015b8281111561314c578251829061313c9082613f3e565b5091602001919060010190613126565b5061315892915061315c565b5090565b80821115613158575f61316f82826130d1565b5060010161315c565b5b80821115613158575f8155600101613179565b5f5f83601f84011261319c575f5ffd5b50813567ffffffffffffffff8111156131b3575f5ffd5b6020830191508360208260051b8501011115610ae9575f5ffd5b5f5f5f5f606085870312156131e0575f5ffd5b8435935060208501359250604085013567ffffffffffffffff811115613204575f5ffd5b6132108782880161318c565b95989497509550505050565b602080825282518282018190525f918401906040840190835b81811015613253578351835260209384019390920191600101613235565b509095945050505050565b5f5f83601f84011261326e575f5ffd5b50813567ffffffffffffffff811115613285575f5ffd5b602083019150836020828501011115610ae9575f5ffd5b5f5f602083850312156132ad575f5ffd5b823567ffffffffffffffff8111156132c3575f5ffd5b6132cf8582860161325e565b90969095509350505050565b5f5f604083850312156132ec575f5ffd5b50508035926020909101359150565b5f81518084528060208401602086015e5f6020828601015260207fffffffffffffffffffffffffffffffffffffffffffffffffffffffffffffffe0601f83011685010191505092915050565b5f82825180855260208501945060208160051b830101602085015f5b838110156133b3577fffffffffffffffffffffffffffffffffffffffffffffffffffffffffffffffe085840301885261339d8383516132fb565b6020988901989093509190910190600101613363565b50909695505050505050565b604081525f6133d16040830185613347565b82810360208401528084518083526020830191506020860192505f5b818110156133b35783518352602093840193909201916001016133ed565b5f5f5f6040848603121561341d575f5ffd5b83359250602084013567ffffffffffffffff81111561343a575f5ffd5b6134468682870161325e565b9497909650939450505050565b602081525f610bef6020830184613347565b803573ffffffffffffffffffffffffffffffffffffffff81168114613488575f5ffd5b919050565b5f5f6040838503121561349e575f5ffd5b823591506134ae60208401613465565b90509250929050565b7f4e487b71000000000000000000000000000000000000000000000000000000005f52604160045260245ffd5b604051601f82017fffffffffffffffffffffffffffffffffffffffffffffffffffffffffffffffe016810167ffffffffffffffff8111828210171561352b5761352b6134b7565b604052919050565b5f5f67ffffffffffffffff84111561354d5761354d6134b7565b50601f83017fffffffffffffffffffffffffffffffffffffffffffffffffffffffffffffffe016602001613580816134e4565b915050828152838383011115613594575f5ffd5b828260208301375f602084830101529392505050565b5f5f604083850312156135bb575f5ffd5b6135c483613465565b9150602083013567ffffffffffffffff8111156135df575f5ffd5b8301601f810185136135ef575f5ffd5b6135fe85823560208401613533565b9150509250929050565b5f60208284031215613618575f5ffd5b5035919050565b5f5f5f5f5f60808688031215613633575f5ffd5b853594506020860135935060408601359250606086013567ffffffffffffffff81111561365e575f5ffd5b61366a8882890161325e565b969995985093965092949392505050565b5f5f6020838503121561368c575f5ffd5b823567ffffffffffffffff8111156136a2575f5ffd5b6132cf8582860161318c565b5f5f5f606084860312156136c0575f5ffd5b83359250602084013591506136d760408501613465565b90509250925092565b602080825282518282018190525f918401906040840190835b8181101561325357835173ffffffffffffffffffffffffffffffffffffffff168352602093840193909201916001016136f9565b602081525f610bef60208301846132fb565b5f602082016020835280845180835260408501915060408160051b8601019250602086015f5b82811015613818578685037fffffffffffffffffffffffffffffffffffffffffffffffffffffffffffffffc0018452815180518087526020918201918088019190600582901b8901015f5b828110156137ff577fffffffffffffffffffffffffffffffffffffffffffffffffffffffffffffffe08a83030184526137ea8286516132fb565b602095860195949094019391506001016137b0565b5097505050602094850194929092019150600101613765565b50929695505050505050565b5f60208284031215613834575f5ffd5b610bef82613465565b5f5f5f5f60608587031215613850575f5ffd5b84359350602085013567ffffffffffffffff81111561386d575f5ffd5b8501601f8101871361387d575f5ffd5b803567ffffffffffffffff811115613897576138976134b7565b8060051b6138a7602082016134e4565b9182526020818401810192908101908a8411156138c2575f5ffd5b6020850192505b8383101561391b57823567ffffffffffffffff8111156138e7575f5ffd5b8501603f81018c136138f7575f5ffd5b6139098c602083013560408401613533565b835250602092830192909101906138c9565b96505050506040860135905067ffffffffffffffff81111561393b575f5ffd5b6132108782880161325e565b7f4e487b71000000000000000000000000000000000000000000000000000000005f52603260045260245ffd5b818382375f9101908152919050565b7f4e487b71000000000000000000000000000000000000000000000000000000005f52601160045260245ffd5b8181038181111561086757610867613983565b600181811c908216806139d757607f821691505b602082108103613a0e577f4e487b71000000000000000000000000000000000000000000000000000000005f52602260045260245ffd5b50919050565b5f81518060208401855e5f93019283525090919050565b5f610bef8284613a14565b601f8211156126b557805f5260205f20601f840160051c81016020851015613a5b5750805b601f840160051c820191505b81811015612a6f575f8155600101613a67565b67ffffffffffffffff831115613a9257613a926134b7565b613aa683613aa083546139c3565b83613a36565b5f601f841160018114613af6575f8515613ac05750838201355b7fffffffffffffffffffffffffffffffffffffffffffffffffffffffffffffffff600387901b1c1916600186901b178355612a6f565b5f838152602081207fffffffffffffffffffffffffffffffffffffffffffffffffffffffffffffffe08716915b82811015613b435786850135825560209485019460019092019101613b23565b5086821015613b7e577fffffffffffffffffffffffffffffffffffffffffffffffffffffffffffffffff60f88860031b161c19848701351681555b505060018560011b0183555050505050565b81835281816020850137505f602082840101525f60207fffffffffffffffffffffffffffffffffffffffffffffffffffffffffffffffe0601f840116840101905092915050565b602081525f613bea602083018486613b90565b949350505050565b818103613bfd575050565b613c0782546139c3565b67ffffffffffffffff811115613c1f57613c1f6134b7565b613c3381613c2d84546139c3565b84613a36565b5f601f821160018114613c86575f8315613c4d5750848201545b600184901b7fffffffffffffffffffffffffffffffffffffffffffffffffffffffffffffffff600386901b1c198216175b855550612a6f565b5f85815260208082208683529082207fffffffffffffffffffffffffffffffffffffffffffffffffffffffffffffffe08616925b83811015613cda5782860154825560019586019590910190602001613cba565b5085831015613d1657818501547fffffffffffffffffffffffffffffffffffffffffffffffffffffffffffffffff600388901b60f8161c191681555b5050505050600190811b01905550565b7f4e487b71000000000000000000000000000000000000000000000000000000005f52603160045260245ffd5b8082018281125f831280158216821582161715613d7257613d72613983565b505092915050565b838152604060208201525f612fa4604083018486613b90565b604081525f613da6604083018587613b90565b9050826020830152949350505050565b5f5f83357fffffffffffffffffffffffffffffffffffffffffffffffffffffffffffffffe1843603018112613de9575f5ffd5b83018035915067ffffffffffffffff821115613e03575f5ffd5b602001915036819003821315610ae9575f5ffd5b8082018082111561086757610867613983565b5f7fffffffffffffffffffffffffffffffffffffffffffffffffffffffffffffffff8203613e5a57613e5a613983565b5060010190565b604081525f613e74604083018587613b90565b8281036020840152613e868185613347565b9695505050505050565b5f60208284031215613ea0575f5ffd5b5051919050565b5f8154613eb3816139c3565b600182168015613eca5760018114613efd57613f2a565b7fffffffffffffffffffffffffffffffffffffffffffffffffffffffffffffff0083168652811515820286019350613f2a565b845f5260205f205f5b83811015613f2257815488820152600190910190602001613f06565b505081860193505b50505092915050565b5f610bef8284613ea7565b815167ffffffffffffffff811115613f5857613f586134b7565b613f6681613c2d84546139c3565b6020601f821160018114613fb5575f8315613c4d575081850151600184901b7fffffffffffffffffffffffffffffffffffffffffffffffffffffffffffffffff600386901b1c19821617613c7e565b5f848152602081207fffffffffffffffffffffffffffffffffffffffffffffffffffffffffffffffe08516915b828110156140025787850151825560209485019460019092019101613fe2565b508482101561403e57868401517fffffffffffffffffffffffffffffffffffffffffffffffffffffffffffffffff600387901b60f8161c191681555b50505050600190811b01905550565b5f8161405b5761405b613983565b507fffffffffffffffffffffffffffffffffffffffffffffffffffffffffffffffff019056fea26469706673582212208e3a1fc194745e7dfbc7f1f427b10b646db112f496dc8297b4a48b7b053bd15964736f6c634300081d0033","linkReferences":{}},"methodIdentifiers":{"BOOTNODE_MANAGER_ROLE()":"7c8973c7","OWNER_ROLE()":"e58378bb","STAGE_MANAGER_ROLE()":"068dc322","UPGRADE_INTERFACE_VERSION()":"ad3cb1cc","addBootnodes(string[])":"d90d8573","clearBootnodes()":"4179a759","currentRound()":"8a19c8bc","currentStage()":"5bf5d54c","getBootnodes()":"6370ae4f","getBootnodesCount()":"48495bdb","getEoa(string[])":"96bac35a","getPeerId(address[])":"b894a469","getPeerVoteCount(uint256,string)":"4f4026c3","getRoundStageReward(uint256,uint256,address[])":"098f027f","getTotalRewards(string[])":"80c3d97f","getTotalWins(string)":"099c4002","getVoterVoteCount(string)":"dfb3c7df","getVoterVotes(uint256,string)":"2bdd8ea6","grantRole(bytes32,address)":"2f2ff15d","hasRole(bytes32,address)":"91d14854","hasSubmittedRoundStageReward(uint256,uint256,address)":"9291fee5","initialize(address)":"c4d66de8","proxiableUUID()":"52d1902d","registerPeer(string)":"33e7fb45","removeBootnode(uint256)":"4f52ca36","revokeRole(bytes32,address)":"d547741f","stageCount()":"f33261ac","submitReward(uint256,uint256,int256,string)":"5194e15f","submitWinners(uint256,string[],string)":"fbe94d68","uniqueVotedPeers()":"42d2c6a0","uniqueVoters()":"b0c77404","updateStageAndRound()":"e28b0586","upgradeToAndCall(address,bytes)":"4f1ef286","voterLeaderboard(uint256,uint256)":"18a6fd88","winnerLeaderboard(uint256,uint256)":"2f4be652"},"id":34}